S0260000646973742F52656C656173652F64656275672F5544432E582E64656275672E737265635E
S11300000C9456000C9473000C9473000C947300BD
S11300100C9473000C9473000C9473000C94730090
S11300200C9473000C9473000C9473000C94730080
S11300300C9473000C9473000C9473000C94730070
S11300400C9473000C9473000C9473000C94730060
S11300500C9473000C9473000C9473000C94730050
S11300600C9473000C9473000C9473000C94730040
S11300700C9473000C9473000C9473000C94730030
S11300800C9473000C9473000C9473000C94730020
S11300900C9473000C9473000C9473000C94730010
S11300A00C9473000C9473000C94730011241FBE01
S11300B0CFEFDAE0DEBFCDBF11E0A0E0B1E0E6E3D0
S11300C0F2E002C005900D92A830B107D9F721E003
S11300D0A8E0B1E001C01D92A930B207E1F70E9487
S11300E07B000C9419010C9400000E94C20083E36D
S11300F090E00C94D200CF93DF93CDB7DEB72A976C
S11301000FB6F894DEBF0FBECDBF0E94750000E0AD
S113011010E078018FEFE81AF80A0E940601E6E081
S1130120F0E0EC0FFD1FE00FF11F808385E0E0E0BD
S1130130F1E0DE01119601900D928A95E1F785E0D8
S1130140E816F104E9F485E0FE013696A6E0B1E094
S113015001900D928A95E1F7CE0106960E94E10086
S1130160BE016F5F7F4FCE0106960E941001892B5E
S113017011F481E401C083E40E94DA00E12CF12C43
S11301808701C7CF259A579A6E9A249A2D9A769802
S11301902C98219A269A239A229A299A2B982A985B
S11301A02E9A08959093CD008093CC0088E180939B
S11301B0C90008959091C80095FFFCCF8093CE00AC
S11301C008950F931F93CF93DF938C01EC01FE01ED
S11301D09E01201B310BDE010D900020E9F71197E1
S11301E0CD018C1B9D0B8730910510F4029601C044
S11301F002972817390728F4219680810E94DA0093
S1130200E6CFDF91CF911F910F9108958091C8009F
S113021087FFFCCF81E0809308018091CE00089590
S1130220FB01DC018D91019080190110D9F3990B28
S10902300895F894FFCFCD
S10B02366173646667000000B7
S9030000FC
