S02B0000646973742F52656C656173652F70726F64756374696F6E2F5544432E582E70726F64756374696F6EB4
S11300000C9456000C946B000C946B000C946B00D5
S11300100C946B000C946B000C946B000C946B00B0
S11300200C946B000C946B000C946B000C946B00A0
S11300300C946B000C946B000C946B000C946B0090
S11300400C946B000C946B000C946B000C946B0080
S11300500C946B000C946B000C946B000C946B0070
S11300600C946B000C946B000C946B000C946B0060
S11300700C946B000C946B000C946B000C946B0050
S11300800C946B000C946B000C946B000C946B0040
S11300900C946B000C946B000C946B000C946B0030
S11300A00C946B000C946B000C946B0011241FBE19
S11300B0CFEFDAE0DEBFCDBF11E0A0E0B1E0E4E9CC
S11300C0F2E002C005900D92A831B107D9F70E9461
S11300D073000C9448010C9400000E94820083E396
S11300E090E00C942B010E946D0060E070E080E0D1
S11300F090E00E943B01EC010E949200CE010E941C
S1130100CF00F3CF259A579A6E9A249A2D9A76980F
S11301102C98219A269A239A229A299A2B982A98DB
S11301202E9A08955F9A81E090E00E94C5005F983E
S113013081E090E00E94C5005F9A2D98E0E0F1E034
S113014030E120E42C9906C095B180818295807FAE
S113015089270AC08081811103C085B1832704C027
S113016095B18295807F892B85B90F920F900000FD
S11301708EB182278EB98EB182278EB9319681E0F5
S1130180E831F807F9F62D9A089520E030E02817B1
S1130190390721F000002F5F3F4FF9CF0895CF9327
S11301A0DF93CDB7DEB7A0970FB6F894DEBF0FBECE
S11301B0CDBFFE01319620E2DF011D922A95E9F7B9
S11301C0DF0120E030E0AC01022E02C0440F551FD5
S11301D00A94E2F7452F441F4427441F50E04D93EF
S11301E05D932F5F3F4F2031310569F729989E01B8
S11301F02F5D3F4F54E048E02A9906C095B18081B5
S1130200880F880F89270BC080819181009719F48A
S113021085B1852704C095B1880F880F892B85B9CE
S113022085B1842785B985B1842785B93296E217CB
S1130230F30711F72A98299A2E9881E090E00E94FA
S1130240C5002E9AA0960FB6F894DEBF0FBECDBFA0
S1130250DF91CF9108959093CD008093CC0088E1F5
S11302608093C90008958091C80087FFFCCF8091D6
S1130270CE0090E00895CF930E943301C82F0E94CE
S1130280330120E030E03C2F820F931FCF9108957B
S1070290F894FFCF0C
S11302940000000000000000000000010000000055
S10B02A401000000000001004C
S9030000FC
